{
  "_format": "hh-sol-artifact-1",
  "contractName": "HogeVendor",
  "sourceName": "contracts/HogeVendor.sol",
  "abi": [
    {
      "anonymous": false,
      "inputs": [
        {
          "indexed": true,
          "internalType": "address",
          "name": "previousOwner",
          "type": "address"
        },
        {
          "indexed": true,
          "internalType": "address",
          "name": "newOwner",
          "type": "address"
        }
      ],
      "name": "OwnershipTransferred",
      "type": "event"
    },
    {
      "inputs": [],
      "name": "ask",
      "outputs": [
        {
          "internalType": "uint128",
          "name": "",
          "type": "uint128"
        }
      ],
      "stateMutability": "view",
      "type": "function"
    },
    {
      "inputs": [],
      "name": "bid",
      "outputs": [
        {
          "internalType": "uint128",
          "name": "",
          "type": "uint128"
        }
      ],
      "stateMutability": "view",
      "type": "function"
    },
    {
      "inputs": [],
      "name": "buyHOGE",
      "outputs": [
        {
          "internalType": "uint256",
          "name": "amountBought",
          "type": "uint256"
        }
      ],
      "stateMutability": "payable",
      "type": "function"
    },
    {
      "inputs": [
        {
          "internalType": "uint256",
          "name": "amountETH",
          "type": "uint256"
        }
      ],
      "name": "buyQuote",
      "outputs": [
        {
          "internalType": "uint256",
          "name": "amountHOGE",
          "type": "uint256"
        }
      ],
      "stateMutability": "view",
      "type": "function"
    },
    {
      "inputs": [
        {
          "internalType": "uint256",
          "name": "set_bidPrice",
          "type": "uint256"
        },
        {
          "internalType": "uint256",
          "name": "set_askPrice",
          "type": "uint256"
        }
      ],
      "name": "initialize",
      "outputs": [],
      "stateMutability": "nonpayable",
      "type": "function"
    },
    {
      "inputs": [],
      "name": "kill",
      "outputs": [],
      "stateMutability": "nonpayable",
      "type": "function"
    },
    {
      "inputs": [],
      "name": "owner",
      "outputs": [
        {
          "internalType": "address",
          "name": "",
          "type": "address"
        }
      ],
      "stateMutability": "view",
      "type": "function"
    },
    {
      "inputs": [
        {
          "internalType": "uint256",
          "name": "amount",
          "type": "uint256"
        }
      ],
      "name": "releaseFunds",
      "outputs": [],
      "stateMutability": "nonpayable",
      "type": "function"
    },
    {
      "inputs": [],
      "name": "renounceOwnership",
      "outputs": [],
      "stateMutability": "nonpayable",
      "type": "function"
    },
    {
      "inputs": [
        {
          "internalType": "uint256",
          "name": "amountHOGE",
          "type": "uint256"
        }
      ],
      "name": "sellHOGE",
      "outputs": [
        {
          "internalType": "uint256",
          "name": "ethToPay",
          "type": "uint256"
        }
      ],
      "stateMutability": "nonpayable",
      "type": "function"
    },
    {
      "inputs": [
        {
          "internalType": "uint256",
          "name": "amountHOGE",
          "type": "uint256"
        }
      ],
      "name": "sellQuote",
      "outputs": [
        {
          "internalType": "uint256",
          "name": "amountETH",
          "type": "uint256"
        }
      ],
      "stateMutability": "view",
      "type": "function"
    },
    {
      "inputs": [
        {
          "internalType": "address",
          "name": "newOwner",
          "type": "address"
        }
      ],
      "name": "transferOwnership",
      "outputs": [],
      "stateMutability": "nonpayable",
      "type": "function"
    },
    {
      "inputs": [],
      "name": "vendorAsk",
      "outputs": [
        {
          "internalType": "uint256",
          "name": "amountHOGE",
          "type": "uint256"
        },
        {
          "internalType": "uint256",
          "name": "amountETH",
          "type": "uint256"
        }
      ],
      "stateMutability": "view",
      "type": "function"
    },
    {
      "inputs": [],
      "name": "vendorBid",
      "outputs": [
        {
          "internalType": "uint256",
          "name": "amountHOGE",
          "type": "uint256"
        },
        {
          "internalType": "uint256",
          "name": "amountETH",
          "type": "uint256"
        }
      ],
      "stateMutability": "view",
      "type": "function"
    },
    {
      "stateMutability": "payable",
      "type": "receive"
    }
  ],
  "bytecode": "0x608060405234801561001057600080fd5b50611bca806100206000396000f3fe6080604052600436106100e15760003560e01c806362b419d81161007f578063c1f2ed9a11610059578063c1f2ed9a14610278578063d7a2e4c9146102b5578063e4a30116146102f2578063f2fde38b1461031b576100e8565b806362b419d814610218578063715018a6146102365780638da5cb5b1461024d576100e8565b806328d1da34116100bb57806328d1da341461018157806341c0e1b5146101ad5780634a896384146101c45780634d68282f146101ef576100e8565b806306065b33146100ed578063168585e5146101195780631998aeef14610156576100e8565b366100e857005b600080fd5b3480156100f957600080fd5b50610102610344565b60405161011092919061174d565b60405180910390f35b34801561012557600080fd5b50610140600480360381019061013b9190611386565b6103d2565b60405161014d9190611732565b60405180910390f35b34801561016257600080fd5b5061016b6104ae565b6040516101789190611717565b60405180910390f35b34801561018d57600080fd5b506101966104d7565b6040516101a492919061174d565b60405180910390f35b3480156101b957600080fd5b506101c261072c565b005b3480156101d057600080fd5b506101d961082d565b6040516101e69190611717565b60405180910390f35b3480156101fb57600080fd5b5061021660048036038101906102119190611386565b610856565b005b610220610923565b60405161022d9190611732565b60405180910390f35b34801561024257600080fd5b5061024b610aab565b005b34801561025957600080fd5b50610262610b33565b60405161026f919061157c565b60405180910390f35b34801561028457600080fd5b5061029f600480360381019061029a9190611386565b610b5d565b6040516102ac9190611732565b60405180910390f35b3480156102c157600080fd5b506102dc60048036038101906102d79190611386565b610d35565b6040516102e99190611732565b60405180910390f35b3480156102fe57600080fd5b50610319600480360381019061031491906113d8565b610e45565b005b34801561032757600080fd5b50610342600480360381019061033d9190611334565b611000565b005b6000806103c9633b9aca006103bb60626103ad606361039f606660000160009054906101000a90046fffffffffffffffffffffffffffffffff166fffffffffffffffffffffffffffffffff16476110f890919063ffffffff16565b6110f890919063ffffffff16565b61110e90919063ffffffff16565b61110e90919063ffffffff16565b91504790509091565b6000610456633b9aca00610448606261043a606361042c606660000160109054906101000a90046fffffffffffffffffffffffffffffffff166fffffffffffffffffffffffffffffffff16896110f890919063ffffffff16565b6110f890919063ffffffff16565b61110e90919063ffffffff16565b61110e90919063ffffffff16565b905060006104626104d7565b509050808211156104a8576040517f08c379a000000000000000000000000000000000000000000000000000000000815260040161049f906116f7565b60405180910390fd5b50919050565b6000606660000160009054906101000a90046fffffffffffffffffffffffffffffffff16905090565b6000806000606660000160109054906101000a90046fffffffffffffffffffffffffffffffff166fffffffffffffffffffffffffffffffff1614156105225760008091509150610728565b6000606560009054906101000a900473ffffffffffffffffffffffffffffffffffffffff1673ffffffffffffffffffffffffffffffffffffffff1663dd62ed3e61056a610b33565b306040518363ffffffff1660e01b8152600401610588929190611597565b60206040518083038186803b1580156105a057600080fd5b505afa1580156105b4573d6000803e3d6000fd5b505050506040513d601f19601f820116820180604052508101906105d891906113af565b90506000606560009054906101000a900473ffffffffffffffffffffffffffffffffffffffff1673ffffffffffffffffffffffffffffffffffffffff166370a08231610622610b33565b6040518263ffffffff1660e01b815260040161063e919061157c565b60206040518083038186803b15801561065657600080fd5b505afa15801561066a573d6000803e3d6000fd5b505050506040513d601f19601f8201168201806040525081019061068e91906113af565b905080821161069d578161069f565b805b9350610723606660000160109054906101000a90046fffffffffffffffffffffffffffffffff166fffffffffffffffffffffffffffffffff16610715606361070760626106f9633b9aca008b6110f890919063ffffffff16565b6110f890919063ffffffff16565b61110e90919063ffffffff16565b61110e90919063ffffffff16565b925050505b9091565b610734611124565b73ffffffffffffffffffffffffffffffffffffffff16610752610b33565b73ffffffffffffffffffffffffffffffffffffffff16146107a8576040517f08c379a000000000000000000000000000000000000000000000000000000000815260040161079f90611697565b60405180910390fd5b6107b147610856565b6000606660000160006101000a8154816fffffffffffffffffffffffffffffffff02191690836fffffffffffffffffffffffffffffffff1602179055506000606660000160106101000a8154816fffffffffffffffffffffffffffffffff02191690836fffffffffffffffffffffffffffffffff160217905550565b6000606660000160109054906101000a90046fffffffffffffffffffffffffffffffff16905090565b61085e611124565b73ffffffffffffffffffffffffffffffffffffffff1661087c610b33565b73ffffffffffffffffffffffffffffffffffffffff16146108d2576040517f08c379a00000000000000000000000000000000000000000000000000000000081526004016108c990611697565b60405180910390fd5b6108da610b33565b73ffffffffffffffffffffffffffffffffffffffff166108fc829081150290604051600060405180830381858888f1935050505015801561091f573d6000803e3d6000fd5b5050565b600080606660000160109054906101000a90046fffffffffffffffffffffffffffffffff166fffffffffffffffffffffffffffffffff161161099a576040517f08c379a000000000000000000000000000000000000000000000000000000000815260040161099190611657565b60405180910390fd5b600034116109dd576040517f08c379a00000000000000000000000000000000000000000000000000000000081526004016109d4906116d7565b60405180910390fd5b6109e6346103d2565b9050606560009054906101000a900473ffffffffffffffffffffffffffffffffffffffff1673ffffffffffffffffffffffffffffffffffffffff166323b872dd610a2e610b33565b610a36611124565b846040518463ffffffff1660e01b8152600401610a55939291906115c0565b602060405180830381600087803b158015610a6f57600080fd5b505af1158015610a83573d6000803e3d6000fd5b505050506040513d601f19601f82011682018060405250810190610aa7919061135d565b5090565b610ab3611124565b73ffffffffffffffffffffffffffffffffffffffff16610ad1610b33565b73ffffffffffffffffffffffffffffffffffffffff1614610b27576040517f08c379a0000000000000000000000000000000000000000000000000000000008152600401610b1e90611697565b60405180910390fd5b610b31600061112c565b565b6000603360009054906101000a900473ffffffffffffffffffffffffffffffffffffffff16905090565b600080606660000160009054906101000a90046fffffffffffffffffffffffffffffffff166fffffffffffffffffffffffffffffffff1611610bd4576040517f08c379a0000000000000000000000000000000000000000000000000000000008152600401610bcb90611657565b60405180910390fd5b60008211610c17576040517f08c379a0000000000000000000000000000000000000000000000000000000008152600401610c0e90611617565b60405180910390fd5b610c2082610d35565b9050606560009054906101000a900473ffffffffffffffffffffffffffffffffffffffff1673ffffffffffffffffffffffffffffffffffffffff166323b872dd610c68611124565b610c70610b33565b856040518463ffffffff1660e01b8152600401610c8f939291906115c0565b602060405180830381600087803b158015610ca957600080fd5b505af1158015610cbd573d6000803e3d6000fd5b505050506040513d601f19601f82011682018060405250810190610ce1919061135d565b50610cea611124565b73ffffffffffffffffffffffffffffffffffffffff166108fc829081150290604051600060405180830381858888f19350505050158015610d2f573d6000803e3d6000fd5b50919050565b600080606660000160009054906101000a90046fffffffffffffffffffffffffffffffff166fffffffffffffffffffffffffffffffff1614610df857610df36063610de5606660000160009054906101000a90046fffffffffffffffffffffffffffffffff166fffffffffffffffffffffffffffffffff16610dd76062610dc9633b9aca00896110f890919063ffffffff16565b6110f890919063ffffffff16565b61110e90919063ffffffff16565b61110e90919063ffffffff16565b610dfb565b60005b905047811115610e40576040517f08c379a0000000000000000000000000000000000000000000000000000000008152600401610e37906115f7565b60405180910390fd5b919050565b600060019054906101000a900460ff16610e6d5760008054906101000a900460ff1615610e76565b610e756111f2565b5b610eb5576040517f08c379a0000000000000000000000000000000000000000000000000000000008152600401610eac90611677565b60405180910390fd5b60008060019054906101000a900460ff161590508015610f05576001600060016101000a81548160ff02191690831515021790555060016000806101000a81548160ff0219169083151502179055505b82606660000160006101000a8154816fffffffffffffffffffffffffffffffff02191690836fffffffffffffffffffffffffffffffff16021790555081606660000160106101000a8154816fffffffffffffffffffffffffffffffff02191690836fffffffffffffffffffffffffffffffff16021790555073fad45e47083e4607302aa43c65fb3106f1cd7607606560006101000a81548173ffffffffffffffffffffffffffffffffffffffff021916908373ffffffffffffffffffffffffffffffffffffffff160217905550610fda611203565b8015610ffb5760008060016101000a81548160ff0219169083151502179055505b505050565b611008611124565b73ffffffffffffffffffffffffffffffffffffffff16611026610b33565b73ffffffffffffffffffffffffffffffffffffffff161461107c576040517f08c379a000000000000000000000000000000000000000000000000000000000815260040161107390611697565b60405180910390fd5b600073ffffffffffffffffffffffffffffffffffffffff168173ffffffffffffffffffffffffffffffffffffffff1614156110ec576040517f08c379a00000000000000000000000000000000000000000000000000000000081526004016110e390611637565b60405180910390fd5b6110f58161112c565b50565b6000818361110691906117b8565b905092915050565b6000818361111c9190611787565b905092915050565b600033905090565b6000603360009054906101000a900473ffffffffffffffffffffffffffffffffffffffff16905081603360006101000a81548173ffffffffffffffffffffffffffffffffffffffff021916908373ffffffffffffffffffffffffffffffffffffffff1602179055508173ffffffffffffffffffffffffffffffffffffffff168173ffffffffffffffffffffffffffffffffffffffff167f8be0079c531659141344cd1fd0a4f28419497f9722a3daafe3b4186f6b6457e060405160405180910390a35050565b60006111fd3061125c565b15905090565b600060019054906101000a900460ff16611252576040517f08c379a0000000000000000000000000000000000000000000000000000000008152600401611249906116b7565b60405180910390fd5b61125a61127f565b565b6000808273ffffffffffffffffffffffffffffffffffffffff163b119050919050565b600060019054906101000a900460ff166112ce576040517f08c379a00000000000000000000000000000000000000000000000000000000081526004016112c5906116b7565b60405180910390fd5b6112de6112d9611124565b61112c565b565b6000813590506112ef81611b4f565b92915050565b60008151905061130481611b66565b92915050565b60008135905061131981611b7d565b92915050565b60008151905061132e81611b7d565b92915050565b60006020828403121561134657600080fd5b6000611354848285016112e0565b91505092915050565b60006020828403121561136f57600080fd5b600061137d848285016112f5565b91505092915050565b60006020828403121561139857600080fd5b60006113a68482850161130a565b91505092915050565b6000602082840312156113c157600080fd5b60006113cf8482850161131f565b91505092915050565b600080604083850312156113eb57600080fd5b60006113f98582860161130a565b925050602061140a8582860161130a565b9150509250929050565b61141d81611812565b82525050565b6000611430602183611776565b915061143b826118d4565b604082019050919050565b6000611453602483611776565b915061145e82611923565b604082019050919050565b6000611476602683611776565b915061148182611972565b604082019050919050565b6000611499600f83611776565b91506114a4826119c1565b602082019050919050565b60006114bc602e83611776565b91506114c7826119ea565b604082019050919050565b60006114df602083611776565b91506114ea82611a39565b602082019050919050565b6000611502602b83611776565b915061150d82611a62565b604082019050919050565b6000611525602683611776565b915061153082611ab1565b604082019050919050565b6000611548602283611776565b915061155382611b00565b604082019050919050565b61156781611830565b82525050565b6115768161186c565b82525050565b60006020820190506115916000830184611414565b92915050565b60006040820190506115ac6000830185611414565b6115b96020830184611414565b9392505050565b60006060820190506115d56000830186611414565b6115e26020830185611414565b6115ef604083018461156d565b949350505050565b6000602082019050818103600083015261161081611423565b9050919050565b6000602082019050818103600083015261163081611446565b9050919050565b6000602082019050818103600083015261165081611469565b9050919050565b600060208201905081810360008301526116708161148c565b9050919050565b60006020820190508181036000830152611690816114af565b9050919050565b600060208201905081810360008301526116b0816114d2565b9050919050565b600060208201905081810360008301526116d0816114f5565b9050919050565b600060208201905081810360008301526116f081611518565b9050919050565b600060208201905081810360008301526117108161153b565b9050919050565b600060208201905061172c600083018461155e565b92915050565b6000602082019050611747600083018461156d565b92915050565b6000604082019050611762600083018561156d565b61176f602083018461156d565b9392505050565b600082825260208201905092915050565b60006117928261186c565b915061179d8361186c565b9250826117ad576117ac6118a5565b5b828204905092915050565b60006117c38261186c565b91506117ce8361186c565b9250817fffffffffffffffffffffffffffffffffffffffffffffffffffffffffffffffff048311821515161561180757611806611876565b5b828202905092915050565b600061181d8261184c565b9050919050565b60008115159050919050565b60006fffffffffffffffffffffffffffffffff82169050919050565b600073ffffffffffffffffffffffffffffffffffffffff82169050919050565b6000819050919050565b7f4e487b7100000000000000000000000000000000000000000000000000000000600052601160045260246000fd5b7f4e487b7100000000000000000000000000000000000000000000000000000000600052601260045260246000fd5b7f4e6f7420656e6f7567682045544820746f20636f6d706c657465206f7264657260008201527f2e00000000000000000000000000000000000000000000000000000000000000602082015250565b7f436f6e67726174756c6174696f6e732c20796f7520736f6c64207a65726f204860008201527f4f47452e00000000000000000000000000000000000000000000000000000000602082015250565b7f4f776e61626c653a206e6577206f776e657220697320746865207a65726f206160008201527f6464726573730000000000000000000000000000000000000000000000000000602082015250565b7f4e6f7420696e74657265737465642e0000000000000000000000000000000000600082015250565b7f496e697469616c697a61626c653a20636f6e747261637420697320616c72656160008201527f647920696e697469616c697a6564000000000000000000000000000000000000602082015250565b7f4f776e61626c653a2063616c6c6572206973206e6f7420746865206f776e6572600082015250565b7f496e697469616c697a61626c653a20636f6e7472616374206973206e6f74206960008201527f6e697469616c697a696e67000000000000000000000000000000000000000000602082015250565b7f436f6e67726174756c6174696f6e732c20796f7520626f75676874207a65726f60008201527f20484f47452e0000000000000000000000000000000000000000000000000000602082015250565b7f4e6f7420656e6f75676820484f474520746f20636f6d706c657465206f72646560008201527f722e000000000000000000000000000000000000000000000000000000000000602082015250565b611b5881611812565b8114611b6357600080fd5b50565b611b6f81611824565b8114611b7a57600080fd5b50565b611b868161186c565b8114611b9157600080fd5b5056fea26469706673582212206fc9053aece0a735a69d8cacc5d91f818aacdc126198756acdd4ecde45afecf464736f6c63430008040033",
  "linkReferences": {},
  "deployedLinkReferences": {}
}