{
  "_format": "hh-sol-artifact-1",
  "contractName": "VendorFactory",
  "sourceName": "contracts/VendorFactory.sol",
  "abi": [
    {
      "inputs": [
        {
          "internalType": "address",
          "name": "vendorAddress",
          "type": "address"
        }
      ],
      "stateMutability": "nonpayable",
      "type": "constructor"
    },
    {
      "anonymous": false,
      "inputs": [
        {
          "indexed": true,
          "internalType": "address",
          "name": "creator",
          "type": "address"
        },
        {
          "indexed": true,
          "internalType": "address",
          "name": "vendor",
          "type": "address"
        }
      ],
      "name": "VendorCreated",
      "type": "event"
    },
    {
      "inputs": [
        {
          "internalType": "uint256",
          "name": "buyPrice",
          "type": "uint256"
        },
        {
          "internalType": "uint256",
          "name": "sellPrice",
          "type": "uint256"
        }
      ],
      "name": "createVendor",
      "outputs": [
        {
          "internalType": "address",
          "name": "new_vendor",
          "type": "address"
        }
      ],
      "stateMutability": "nonpayable",
      "type": "function"
    }
  ],
  "bytecode": "0x608060405234801561001057600080fd5b506040516105773803806105778339818101604052810190610032919061008d565b806000806101000a81548173ffffffffffffffffffffffffffffffffffffffff021916908373ffffffffffffffffffffffffffffffffffffffff160217905550506100ff565b600081519050610087816100e8565b92915050565b60006020828403121561009f57600080fd5b60006100ad84828501610078565b91505092915050565b60006100c1826100c8565b9050919050565b600073ffffffffffffffffffffffffffffffffffffffff82169050919050565b6100f1816100b6565b81146100fc57600080fd5b50565b6104698061010e6000396000f3fe608060405234801561001057600080fd5b506004361061002b5760003560e01c806327396ed314610030575b600080fd5b61004a600480360381019061004591906102c5565b610060565b6040516100579190610342565b60405180910390f35b600061008b60008054906101000a900473ffffffffffffffffffffffffffffffffffffffff166101d3565b90508073ffffffffffffffffffffffffffffffffffffffff1663e4a3011684846040518363ffffffff1660e01b81526004016100c892919061037d565b600060405180830381600087803b1580156100e257600080fd5b505af11580156100f6573d6000803e3d6000fd5b505050508073ffffffffffffffffffffffffffffffffffffffff1663f2fde38b61011e6102a8565b6040518263ffffffff1660e01b815260040161013a9190610342565b600060405180830381600087803b15801561015457600080fd5b505af1158015610168573d6000803e3d6000fd5b505050508073ffffffffffffffffffffffffffffffffffffffff1661018b6102a8565b73ffffffffffffffffffffffffffffffffffffffff167f03e7efc3b383647ff95cc316c85f65dbb36e2c789b3accc2f990830fe47c98da60405160405180910390a392915050565b60006040517f3d602d80600a3d3981f3363d3d373d3d3d363d7300000000000000000000000081528260601b60148201527f5af43d82803e903d91602b57fd5bf3000000000000000000000000000000000060288201526037816000f0915050600073ffffffffffffffffffffffffffffffffffffffff168173ffffffffffffffffffffffffffffffffffffffff1614156102a3576040517f08c379a000000000000000000000000000000000000000000000000000000000815260040161029a9061035d565b60405180910390fd5b919050565b600033905090565b6000813590506102bf8161041c565b92915050565b600080604083850312156102d857600080fd5b60006102e6858286016102b0565b92505060206102f7858286016102b0565b9150509250929050565b61030a816103b7565b82525050565b600061031d6016836103a6565b9150610328826103f3565b602082019050919050565b61033c816103e9565b82525050565b60006020820190506103576000830184610301565b92915050565b6000602082019050818103600083015261037681610310565b9050919050565b60006040820190506103926000830185610333565b61039f6020830184610333565b9392505050565b600082825260208201905092915050565b60006103c2826103c9565b9050919050565b600073ffffffffffffffffffffffffffffffffffffffff82169050919050565b6000819050919050565b7f455243313136373a20637265617465206661696c656400000000000000000000600082015250565b610425816103e9565b811461043057600080fd5b5056fea26469706673582212207f709b3f6093d73bff4aa2f93a095ff35cd301eb790af5755b896a7e12b9938164736f6c63430008040033",
  "linkReferences": {},
  "deployedLinkReferences": {}
}